:020000040000FA
:100000000C9462000C948A000C948A000C948A0070
:100010000C948A000C948A000C948A000C948A0038
:100020000C948A000C948A000C948A000C948A0028
:100030000C948A000C948A000C948A000C948A0018
:100040000C94A4040C948A000C9472040C944C0438
:100050000C948A000C948A000C948A000C948A00F8
:100060000C948A000C948A000000000024002700F1
:100070002A0000000000250028002B0000000008D6
:10008000000201000003040700000000000000005F
:1000900000000000230026002900040404040404D6
:1000A0000404020202020202030303030303010227
:1000B00004081020408001020408102001020408F6
:1000C0001020330511241FBECFEFD8E0DEBFCDBF17
:1000D00022E0AEE6B1E001C01D92AD36B207E1F715
:1000E00011E0A0E0B1E0E8E8F6E102C005900D9271
:1000F000AE36B107D9F710E0C2E6D0E004C02197D0
:10010000FE010E943C0BC136D107C9F70E9472055F
:100110000C94420B0C940000EAE8F1E0A089B1894C
:1001200082E08C93A485B5851C92A685B7858FEC5B
:100130008C93108EA489B58986E08C93A289B389AB
:100140008C9180618C93A289B3898C9188608C9307
:10015000A289B3898C9180688C930288F389E02D01
:1001600080818F7D80830895AF92BF92CF92DF927E
:10017000EF92FF920F931F93CF93DF936C017B015C
:100180008B01040F151FEB015E01AE18BF08C017ED
:10019000D10759F06991D601ED91FC910190F08160
:1001A000E02DC6010995892B79F7C501DF91CF9123
:1001B0001F910F91FF90EF90DF90CF90BF90AF9085
:1001C0000895FC01538D448D252F30E0842F90E05D
:1001D000821B930B541710F0CF9608950197089542
:1001E000FC01918D828D981761F0A28DAE0FBF2F0B
:1001F000B11D5D968C91928D9F5F9F73928F90E061
:1002000008958FEF9FEF0895FC01918D828D9817CF
:1002100031F0828DE80FF11D858D90E008958FEF0C
:100220009FEF0895FC01918D228D892F90E0805CD5
:100230009F4F821B91098F73992708958AE891E057
:100240000E94120121E0892B09F420E0822F0895F9
:1002500080E090E0892B29F00E941E0181110C940E
:1002600000000895FC01A48DA80FB92FB11DA35A59
:10027000BF4F2C91848D90E001968F739927848FC6
:10028000A689B7892C93A089B1898C9183708064E9
:100290008C93938D848D981306C00288F389E02D8A
:1002A00080818F7D80830895EF92FF920F931F933B
:1002B000CF93DF93EC0181E0888F9B8D8C8D981319
:1002C0001AC0E889F989808185FF15C09FB7F89425
:1002D000EE89FF896083E889F98980818370806471
:1002E00080839FBF81E090E0DF91CF911F910F91BC
:1002F000FF90EF900895F62E0B8D10E00F5F1F4FCB
:100300000F731127E02E8C8D8E110CC00FB607FCD9
:10031000FACFE889F989808185FFF5CFCE010E9467
:100320003201F1CFEB8DEC0FFD2FF11DE35AFF4FA2
:10033000F0829FB7F8940B8FEA89FB8980818062F5
:10034000CFCFCF93DF93EC01888D8823B9F0AA89B2
:10035000BB89E889F9898C9185FD03C0808186FD80
:100360000DC00FB607FCF7CF8C9185FFF2CF8081CF
:1003700085FFEDCFCE010E943201E9CFDF91CF9111
:10038000089590E0FC01E458FF4F2491FC01E255F0
:10039000FF4F3491FC01E656FF4FE491EE23C9F084
:1003A000222339F0233001F1A8F4213019F1223051
:1003B00029F1F0E0EE0FFF1FEE58FF4FA591B49129
:1003C0008FB7F894EC91611126C030953E233C9391
:1003D0008FBF08952730A9F02830C9F0243049F79D
:1003E000809180008F7D03C0809180008F77809303
:1003F0008000DFCF84B58F7784BDDBCF84B58F7D60
:10040000FBCF8091B0008F778093B000D2CF8091E6
:10041000B0008F7DF9CF3E2BDACFCF93DF9390E002
:10042000FC01E255FF4F249186569F4FFC018491B9
:100430008823D1F090E0880F991FFC01E859FF4F05
:10044000A591B491FC01EE58FF4FC591D491611173
:100450000EC09FB7F8948C91E22FE0958E238C9379
:100460002881E223E8839FBFDF91CF9108958FB762
:10047000F894EC91E22BEC938FBFF6CF3FB7F89452
:100480008091730190917401A0917501B0917601F2
:1004900026B5A89B05C02F3F19F00196A11DB11DDF
:1004A0003FBFBA2FA92F982F8827BC01CD01620F1B
:1004B000711D811D911D42E0660F771F881F991FD6
:1004C0004A95D1F708958F929F92AF92BF92CF92A3
:1004D000DF92EF92FF924B015C010E943E026B01A2
:1004E0007C010E943E026C197D098E099F09683EBD
:1004F000734081059105A8F321E0821A9108A108B3
:10050000B10888EEC80E83E0D81EE11CF11C8114EE
:100510009104A104B10429F7FF90EF90DF90CF90F0
:10052000BF90AF909F908F9008952FB7F8946091EF
:100530006F017091700180917101909172012FBFD4
:100540000895FC0101900020E9F73197AF01481BA5
:10055000590BBC018AE891E00C94B4008F929F92F1
:10056000AF92BF920F931F93CF93DF93CDB7DEB7B8
:10057000A1970FB6F894DEBF0FBECDBF19A24230CF
:1005800008F44AE08E010F5D1F4F842E912CB12C90
:10059000A12CA50194010E94020AE62FB901CA010B
:1005A000EA30F4F4E05DD801EE938D01232B242B87
:1005B000252B79F790E080E0109719F0CD010E948B
:1005C000A102A1960FB6F894DEBF0FBECDBFDF919A
:1005D000CF911F910F91BF90AF909F908F900895F2
:1005E000E95CE1CFCF93DF930E94A102EC0182E1AD
:1005F00091E00E94A1028C0F9D1FDF91CF91089581
:100600004F925F926F927F928F929F92AF92BF9222
:10061000CF92DF92EF92FF920F931F93CF936B01D4
:100620007C01742EAC019B010E94370B882399F04A
:1006300085E191E0CF911F910F91FF90EF90DF90B6
:10064000CF90BF90AF909F908F907F906F905F9072
:100650004F900C94A10246015701E894B7F82FEF90
:100660003FEF4FE75FE7C501B4010E94370B8111EF
:100670000DC02FEF3FEF4FE75FE7C501B4010E94C8
:10068000DE0818161CF489E191E0D4CF2FEF3FEF7C
:100690004FE75FE4C701B6010E94320B18161CF445
:1006A0008DE191E0C7CF2FEF3FEF4FE75FECC70140
:1006B000B6010E94DE0887FDF3CF20E030E0A901FB
:1006C000C701B6010E94DE0810E000E087FF0AC003
:1006D0006DE28AE891E00E9454018C01F7FAF094EF
:1006E000F7F8F094C0E060E070E080E09FE37C16F3
:1006F00041F020E030E040E251E40E94910ACF5FF7
:10070000F6CFA70196010E94250A2B013C010E9409
:10071000030B4B015C014AE00E94AE027C01E00E3B
:10072000F11ECC23C1F1C501B4010E94E3089B0175
:10073000AC01C301B2010E94240A4B015C016EE2CC
:100740008AE891E00E945401E80EF91EC15018F1A8
:1007500020E030E040E251E4C501B4010E944409C8
:100760002B013C010E94030B4B01B12CA12C4AE050
:10077000C501B4010E94AE02E80EF91EC501B40124
:100780000E94E3089B01AC01C301B2010E94240A4C
:100790004B015C01DBCFC701CF911F910F91FF90FF
:1007A000EF90DF90CF90BF90AF909F908F907F9011
:1007B0006F905F904F9008950F931F938B019C0152
:1007C000E0EBF0E06491ECE9F0E0E491F0E0EE0FB2
:1007D000FF1FE057FF4FA591B491462FCD010E9416
:1007E000EE04611571058105910529F06F5F7F4F5A
:1007F0008F4F9F4F9F701F910F910895EF92FF921F
:100800000F931F93CF93DF9300D000D0CDB7DEB707
:100810008AE891E00E94F0008AE891E00E94F000EE
:100820008E010F5F1F4F78018A3341F0F8018193E9
:100830008F018AE891E00E94F000F6CFC7010E9484
:10084000B808182F8AE891E00E94F0008053990BB5
:100850008230910520F4682F812F0E94C1018AE81F
:1008600091E00E94F0008A3011F08D30C1F78AE8E3
:1008700091E00E9404018A3021F48AE891E00E940C
:10088000F0000F900F900F900F90DF91CF911F917C
:100890000F91FF90EF9008951F920F920FB60F9255
:1008A00011242F933F934F935F936F937F938F9375
:1008B0009F93AF93BF93EF93FF938AE891E00E94D9
:1008C0003201FF91EF91BF91AF919F918F917F91F5
:1008D0006F915F914F913F912F910F900FBE0F90AD
:1008E0001F9018951F920F920FB60F9211242F93FD
:1008F0008F939F93EF93FF93E0919A01F0919B0167
:100900008081E091A001F091A10182FD1BC0908146
:100910008091A3018F5F8F732091A401821741F012
:10092000E091A301F0E0E657FE4F958F8093A3017D
:10093000FF91EF919F918F912F910F900FBE0F908C
:100940001F9018958081F4CF1F920F920FB60F92CF
:1009500011242F933F938F939F93AF93BF938091D5
:100960006F0190917001A0917101B091720130916D
:100970006E0123E0230F2D3758F50196A11DB11DFF
:1009800020936E0180936F0190937001A093710189
:10099000B09372018091730190917401A0917501DF
:1009A000B09176010196A11DB11D809373019093C2
:1009B0007401A0937501B0937601BF91AF919F919F
:1009C0008F913F912F910F900FBE0F901F90189510
:1009D00026E8230F0296A11DB11DD2CFCF92DF9240
:1009E000EF92FF920F931F93E82FF92F05C001504C
:1009F00011092109310961F1908196239417B9F306
:100A000005C0015011092109310911F19081962386
:100A10009413F7CFC12CD12CE12CF12C0AC08FEF0D
:100A2000C81AD80AE80AF80A0C151D052E053F0554
:100A300079F080818623841791F36C2D7D2D8E2D86
:100A40009F2D1F910F91FF90EF90DF90CF90089511
:100A500060E070E080E090E01F910F91FF90EF90D8
:100A6000DF90CF900895EAE8F1E01382128288EED9
:100A700093E0A0E0B0E084839583A683B78384E00D
:100A800091E09183808385EC90E09587848784EC66
:100A900090E09787868780EC90E0918B808B81EC4B
:100AA00090E0938B828B82EC90E0958B848B86EC2C
:100AB00090E0978B868B118E128E138E148EE7E248
:100AC000F2E016821782108611861286138614862B
:100AD000158616861786108A118A128A138A148A36
:100AE000158A0895789484B5826084BD84B5816048
:100AF00084BD85B5826085BD85B5816085BD8091E9
:100B00006E00816080936E00109281008091810060
:100B10008260809381008091810081608093810058
:100B2000809180008160809380008091B10084601A
:100B30008093B1008091B00081608093B00080917B
:100B40007A00846080937A0080917A00826080933A
:100B50007A0080917A00816080937A0080917A0097
:100B6000806880937A001092C100109269021092FE
:100B70006A0210926B0210926C021092290210927B
:100B80002A0210922B0210922C020E9495026B01F5
:100B90007C014B015C0128EB820E2BE0921EA11C14
:100BA000B11C0E9495026C157D058E059F0528F0ED
:100BB00086169706A806B906A0F768EE73E080E0EF
:100BC00090E00E9463020E948C000E949502609354
:100BD000290270932A0280932B0290932C0281E2C7
:100BE00091E00E94A1020E9495026B017C014B01E1
:100BF0005C013AE0830E911CA11CB11C0E9495027D
:100C00006C157D058E059F0528F086169706A806AB
:100C1000B906A0F781E080933D020E94950260939F
:100C2000290270932A0280932B0290932C0282E374
:100C300091E00E94A1020E948C0061E083E00E948A
:100C40000D0260E082E00E940D0261E08DE00E94F2
:100C50000D0260E083E00E94C1018FE090E0019707
:100C6000F1F761E083E00E94C10183E290E0019727
:100C7000F1F760E083E00E94C10160E472E48FE07C
:100C800090E00E94DC030E94E30823E337E241E5A1
:100C900056E40E94440920E034E244EF59E40E9403
:100CA000910A20E030E040E451E40E94910A609310
:100CB0007E0170937F01809380019093810189E38D
:100CC00091E00E94F20260917E0170917F0180911B
:100CD00080019091810142E00E94000382E491E052
:100CE0000E94F2020FE010E0C3E2D0E080E0282E84
:100CF00080E0382E94EF492E55245394612C712CAA
:100D00000E949502672B682B692B09F4EDC00E94A5
:100D10009502C0908601D0908701E0908801F09004
:100D200089016C157D058E059F0508F4C7C1C0902B
:100D30008601D0908701E0908801F09089019B01A5
:100D4000AC012C193D094E095F0969017A0138EEA1
:100D5000C31633E0D306E104F10408F4CDC0609378
:100D60008601709387018093880190938901409256
:100D70003502509236026092370270923802109219
:100D8000390210923A0210923B0210923C0280917A
:100D90002D0290912E02A0912F02B09130028093EB
:100DA000310290933202A0933302B09334020E9436
:100DB000950260932D0270932E0280932F029093E0
:100DC00030028AE891E00E940401843611F40E9406
:100DD000FE030E9495026093290270932A02809379
:100DE0002B0290932C020E9495026B017C0186E4F9
:100DF00091E00E94A1024AE061E070E080E090E0B2
:100E00000E94AE028DE491E00E94A1024AE0C70177
:100E1000B6010E94AE028FE491E00E94A10280918F
:100E20002D0290912E02A0912F02B0913002A701C5
:100E30009601281B390B4A0B5B0BCA01B9014AE02A
:100E40000E94AE028FE491E00E94A10260912D0207
:100E500070912E0280912F0290913002C090310249
:100E6000D0903202E0903302F09034026C197D0988
:100E70008E099F094AE00E94AE0281E591E00E943E
:100E8000A1020E9495024AE00E94AE0283E591E031
:100E90000E94F2020E9495024B015C017C016B01F1
:100EA00035E0C30ED11CE11CF11C0E9495026815AF
:100EB00079058A059B0528F0C616D706E806F906C7
:100EC000A0F78AE891E00E940401843611F40E94A0
:100ED000FE030E94950260932D0270932E02809370
:100EE0002F029093300208C00E9495026230710573
:100EF0008105910508F00BCF60E08DE00E94C101F3
:100F000060E083E00E94C101C8010197F1F761E050
:100F100083E00E94C101CE010197F1F760E083E018
:100F20000E94C10160E27EE480E090E00E94DC0368
:100F30000E94E3086B017C0120E030E0A9010E94DF
:100F4000DE08882309F4D0C023E337E241E556E404
:100F5000C701B6010E94440920E034E244EF59E49D
:100F60000E94910A20E030E040E451E40E94910A9E
:100F70006093820170938301809384019093850133
:100F800042E00E94000382E191E00E94A10220E081
:100F900030E040E85EE360917E0170917F018091D6
:100FA0008001909181010E94240A6B017C01809054
:100FB000820190908301A0908401B0908501A501E9
:100FC00094010E94DE0887FF82C010927D0164E6D2
:100FD00070E080E090E00E946302A5019401C701E7
:100FE000B6010E94320B87FD16C080917B01909163
:100FF0007C01019690937C0180937B0161E08DE000
:101000000E94C10164E670E080E090E00E9463020B
:1010100081E080937D010E949502C0907701D0907D
:101020007801E0907901F0907A01AB01BC014C1994
:101030005D096E097F0940365A4E6105710590F1D0
:10104000D701C601805A9541AF4FBF4F80937701BA
:1010500090937801A0937901B0937A01C0907B01BD
:10106000D0907C010D2C000CEE08FF084AE0C7016F
:10107000B601F7FE0DC06DE28AE891E00E945401CE
:1010800066277727CB016C197D098E099F094AE0F5
:101090000E94AE0282E191E00E94A10210927C01C6
:1010A00010927B012114310409F42ACE0E941E0102
:1010B000882309F425CE0E94000022CE6093860189
:1010C00070938701809388019093890130CEA501A8
:1010D0009401C701B6010E94320B87FD9CCF80911D
:1010E0007D01811198CF81CF8AE591E00E94F202C3
:1010F00060E08DE00E94C10160E083E00E94C101D8
:10110000C8010197F1F761E083E00E94C101CE01BF
:101110000197F1F760E083E00E94C10160E27EE4A4
:1011200080E090E00E94DC0323E337E241E556E4EF
:10113000C701B6010E94440920E034E244EF59E4BB
:101140000E94910A20E030E040E451E40E94910ABC
:101150006093820170938301809384019093850151
:1011600042E00E94000382E191E00E94A10253CF7D
:10117000FC0188279927E89421912032E9F329304E
:1011800010F02E30C8F32B3241F02D3239F4689430
:1011900004C00E94D608820F911D219120532A304D
:1011A000C0F31EF4909581959F4F08957AE0979F24
:1011B000902D879F802D910D112408950E94200964
:1011C00008F481E00895E89409C097FB3EF49095F7
:1011D0008095709561957F4F8F4F9F4F9923A9F010
:1011E000F92F96E9BB279395F6958795779567959F
:1011F000B795F111F8CFFAF4BB0F11F460FF1BC0E3
:101200006F5F7F4F8F4F9F4F16C0882311F096E975
:1012100011C0772321F09EE8872F762F05C0662323
:1012200071F096E8862F70E060E02AF09A95660FDC
:10123000771F881FDAF7880F9695879597F9089595
:10124000990F0008550FAA0BE0E8FEEF16161706D7
:10125000E807F907C0F012161306E407F50798F03F
:10126000621B730B840B950B39F40A2661F0232B58
:10127000242B252B21F408950A2609F4A140A695D4
:101280008FEF811D811D08950E9457090C94C80994
:101290000E94BA0938F00E94C10920F0952311F08C
:1012A0000C94B1090C94B70911240C94FC090E9408
:1012B000D90970F3959FC1F3950F50E0551F629FB8
:1012C000F001729FBB27F00DB11D639FAA27F00D9F
:1012D000B11DAA1F649F6627B00DA11D661F829FC6
:1012E0002227B00DA11D621F739FB00DA11D621FAB
:1012F000839FA00D611D221F749F3327A00D611DC8
:10130000231F849F600D211D822F762F6A2F1124A9
:101310009F5750409AF0F1F088234AF0EE0FFF1FDC
:10132000BB1F661F771F881F91505040A9F79E3F33
:10133000510580F00C94B1090C94FC095F3FE4F373
:10134000983ED4F3869577956795B795F795E79589
:101350009F5FC1F7FE2B880F911D9695879597F992
:10136000089597F99F6780E870E060E008959FEF27
:1013700080EC089500240A9416161706180609062C
:10138000089500240A9412161306140605060895FB
:10139000092E0394000C11F4882352F0BB0F40F483
:1013A000BF2B11F460FF04C06F5F7F4F8F4F9F4FC3
:1013B000089557FD9058440F551F59F05F3F71F045
:1013C0004795880F97FB991F61F09F3F79F08795AC
:1013D0000895121613061406551FF2CF4695F1DF35
:1013E00008C0161617061806991FF1CF86957105C5
:1013F000610508940895E894BB2766277727CB01F9
:1014000097F90895A1E21A2EAA1BBB1BFD010DC07E
:10141000AA1FBB1FEE1FFF1FA217B307E407F507A4
:1014200020F0A21BB30BE40BF50B661F771F881F80
:10143000991F1A9469F760957095809590959B0116
:10144000AC01BD01CF0108955058BB27AA270E94C7
:101450003C0A0C94C8090E94BA0938F00E94C109DC
:1014600020F039F49F3F19F426F40C94B7090EF4D8
:10147000E095E7FB0C94B109E92F0E94D90958F3D4
:10148000BA17620773078407950720F079F4A6F569
:101490000C94FB090EF4E0950B2EBA2FA02D0B0136
:1014A000B90190010C01CA01A0011124FF27591BA9
:1014B00099F0593F50F4503E68F11A16F040A22FAF
:1014C000232F342F4427585FF3CF46953795279520
:1014D000A795F0405395C9F77EF41F16BA0B620B1F
:1014E000730B840BBAF09150A1F0FF0FBB1F661F66
:1014F000771F881FC2F70EC0BA0F621F731F841FA9
:1015000048F4879577956795B795F7959E3F08F0CE
:10151000B0CF9395880F08F09927EE0F9795879590
:1015200008950E94A50A0C94C8090E94C10958F0A8
:101530000E94BA0940F029F45F3F29F00C94B109E8
:1015400051110C94FC090C94B7090E94D90968F355
:101550009923B1F3552391F3951B550BBB27AA276C
:1015600062177307840738F09F5F5F4F220F331FA6
:10157000441FAA1FA9F335D00E2E3AF0E0E832D06E
:1015800091505040E695001CCAF72BD0FE2F29D071
:10159000660F771F881FBB1F261737074807AB0743
:1015A000B0E809F0BB0B802DBF01FF2793585F4FB8
:1015B0003AF09E3F510578F00C94B1090C94FC0967
:1015C0005F3FE4F3983ED4F3869577956795B7959A
:1015D000F7959F5FC9F7880F911D9695879597F9A5
:1015E0000895E1E0660F771F881FBB1F621773071E
:1015F0008407BA0720F0621B730B840BBA0BEE1F33
:1016000088F7E09508950E94E10988F09F5798F0C7
:10161000B92F9927B751B0F0E1F0660F771F881FF7
:10162000991F1AF0BA95C9F714C0B13091F00E9411
:10163000FB09B1E008950C94FB09672F782F8827E8
:10164000B85F39F0B93FCCF3869577956795B39538
:10165000D9F73EF490958095709561957F4F8F4FA7
:101660009F4F08950E94200908F48FEF08950E946B
:101670002009880B990B0895EE0FFF1F0590F49138
:10168000E02D0994F894FFCF000000005401B4004D
:10169000E100A1011201F00004010D0A006E616E6B
:1016A00000696E66006F766600564D4450565F3195
:1016B0007C315F564D4450560A00564D4450525F9F
:1016C0000062617365206973200020667400564DC6
:1016D0004450455F003A323A007C005F564D44501A
:1016E00045006E6F207369676E616C207265636977
:0616F00065766564000050
:107E0000112484B714BE81FFF0D085E080938100F7
:107E100082E08093C00088E18093C10086E0809377
:107E2000C20080E18093C4008EE0C9D0259A86E02C
:107E300020E33CEF91E0309385002093840096BBD3
:107E4000B09BFECF1D9AA8958150A9F7CC24DD24C4
:107E500088248394B5E0AB2EA1E19A2EF3E0BF2EE7
:107E6000A2D0813461F49FD0082FAFD0023811F036
:107E7000013811F484E001C083E08DD089C08234E0
:107E800011F484E103C0853419F485E0A6D080C0E4
:107E9000853579F488D0E82EFF2485D0082F10E0AE
:107EA000102F00270E291F29000F111F8ED06801E7
:107EB0006FC0863521F484E090D080E0DECF843638
:107EC00009F040C070D06FD0082F6DD080E0C81688
:107ED00080E7D80618F4F601B7BEE895C0E0D1E017
:107EE00062D089930C17E1F7F0E0CF16F0E7DF06D8
:107EF00018F0F601B7BEE89568D007B600FCFDCFD4
:107F0000A601A0E0B1E02C9130E011968C91119780
:107F100090E0982F8827822B932B1296FA010C0160
:107F200087BEE89511244E5F5F4FF1E0A038BF0790
:107F300051F7F601A7BEE89507B600FCFDCF97BE46
:107F4000E89526C08437B1F42ED02DD0F82E2BD052
:107F50003CD0F601EF2C8F010F5F1F4F84911BD097
:107F6000EA94F801C1F70894C11CD11CFA94CF0C13
:107F7000D11C0EC0853739F428D08EE10CD085E9AC
:107F80000AD08FE07ACF813511F488E018D01DD067
:107F900080E101D065CF982F8091C00085FFFCCF94
:107FA0009093C60008958091C00087FFFCCF809118
:107FB000C00084FD01C0A8958091C6000895E0E648
:107FC000F0E098E1908380830895EDDF803219F02E
:107FD00088E0F5DFFFCF84E1DECF1F93182FE3DFCA
:107FE0001150E9F7F2DF1F91089580E0E8DFEE27F6
:047FF000FF270994CA
:027FFE00040479
:00000001FF
