:100000000C9462000C948A000C948A000C948A0070
:100010000C948A000C948A000C948A000C948A0038
:100020000C948A000C948A000C948A000C948A0028
:100030000C948A000C948A000C948A000C948A0018
:100040000C9404030C948A000C94D2020C94AC021D
:100050000C948A000C948A000C948A000C948A00F8
:100060000C948A000C948A000000000024002700F1
:100070002A0000000000250028002B0000000008D6
:10008000000201000003040700000000000000005F
:1000900000000000230026002900040404040404D6
:1000A0000404020202020202030303030303010227
:1000B00004081020408001020408102001020408F6
:1000C0001020060511241FBECFEFD8E0DEBFCDBF44
:1000D00011E0A0E0B1E0E0EFFDE002C005900D927C
:1000E000A631B107D9F721E0A6E1B1E001C01D9228
:1000F000AF3BB207E1F710E0C2E6D0E004C02197C1
:10010000FE010E94F006C136D107C9F70E94930391
:100110000C94F6060C940000AF92BF92CF92DF923F
:10012000EF92FF920F931F93CF93DF936C017B01AC
:100130008B01040F151FEB015E01AE18BF08C0173D
:10014000D10759F06991D601ED91FC910190F081B0
:10015000E02DC6010995892B79F7C501DF91CF9173
:100160001F910F91FF90EF90DF90CF90BF90AF90D5
:100170000895FC01538D448D252F30E0842F90E0AD
:10018000821B930B541710F0CF9608950197089592
:10019000FC01918D828D981761F0A28DAE0FBF2F5B
:1001A000B11D5D968C91928D9F5F9F73928F90E0B1
:1001B00008958FEF9FEF0895FC01918D828D981720
:1001C00031F0828DE80FF11D858D90E008958FEF5D
:1001D0009FEF0895FC01918D228D892F90E0805C26
:1001E0009F4F821B91098F739927089582E291E0B6
:1001F0000E94EA0021E0892B09F420E0822F089573
:1002000080E090E0892B29F00E94F60081110C9487
:1002100000000895FC01A48DA80FB92FB11DA35AA9
:10022000BF4F2C91848D90E001968F739927848F16
:10023000A689B7892C93A089B1898C918370806439
:100240008C93938D848D981306C00288F389E02DDA
:1002500080818F7D80830895EF92FF920F931F938B
:10026000CF93DF93EC0181E0888F9B8D8C8D981369
:100270001AC0E889F989808185FF15C09FB7F89475
:10028000EE89FF896083E889F989808183708064C1
:1002900080839FBF81E090E0DF91CF911F910F910C
:1002A000FF90EF900895F62E0B8D10E00F5F1F4F1B
:1002B0000F731127E02E8C8D8E110CC00FB607FC2A
:1002C000FACFE889F989808185FFF5CFCE010E94B8
:1002D0000A01F1CFEB8DEC0FFD2FF11DE35AFF4F1B
:1002E000F0829FB7F8940B8FEA89FB898081806246
:1002F000CFCFCF93DF93EC01888D8823B9F0AA8903
:10030000BB89E889F9898C9185FD03C0808186FDD0
:100310000DC00FB607FCF7CF8C9185FFF2CF80811F
:1003200085FFEDCFCE010E940A01E9CFDF91CF9189
:10033000089590E0FC01E458FF4F2491FC01E25540
:10034000FF4F3491FC01E656FF4FE491EE23C9F0D4
:10035000222339F0233001F1A8F4213019F12230A1
:1003600029F1F0E0EE0FFF1FEE58FF4FA591B49179
:100370008FB7F894EC91611126C030953E233C93E1
:100380008FBF08952730A9F02830C9F0243049F7ED
:10039000809180008F7D03C0809180008F77809353
:1003A0008000DFCF84B58F7784BDDBCF84B58F7DB0
:1003B000FBCF8091B0008F778093B000D2CF809137
:1003C000B0008F7DF9CF3E2BDACFCF93DF9390E053
:1003D000FC01E255FF4F249186569F4FFC0184910A
:1003E0008823D1F090E0880F991FFC01E859FF4F56
:1003F000A591B491FC01EE58FF4FC591D4916111C4
:100400000EC09FB7F8948C91E22FE0958E238C93C9
:100410002881E223E8839FBFDF91CF9108958FB7B2
:10042000F894EC91E22BEC938FBFF6CF3FB7F894A2
:100430008091170190911801A0911901B0911A01B2
:1004400026B5A89B05C02F3F19F00196A11DB11D2F
:100450003FBFBA2FA92F982F8827BC01CD01620F6B
:10046000711D811D911D42E0660F771F881F991F26
:100470004A95D1F708950F931F93E0EBF0E0649154
:10048000ECE9F0E0E491F0E0EE0FFF1FE057FF4FE2
:100490008591949100E412E42FE030E0462F0E9411
:1004A0004E03611571058105910529F06F5F7F4F3E
:1004B0008F4F9F4F9F701F910F9108958F929F9222
:1004C000AF92BF920F931F93CF93DF93CDB7DEB759
:1004D000A1970FB6F894DEBF0FBECDBF19A2423070
:1004E00008F44AE08E010F5D1F4F842E912CB12C31
:1004F000A12CA50194010E94CE06E62FB901CA01E4
:10050000EA3044F5E05DD801EE938D01232B242BD6
:10051000252B79F790E080E0109769F0FD010190BC
:100520000020E9F73197AF014A1B5B0BBD0182E266
:1005300091E00E948C00A1960FB6F894DEBF0FBE2A
:10054000CDBFDF91CF911F910F91BF90AF909F9042
:100550008F900895E95CD7CF1F920F920FB60F923C
:1005600011242F933F934F935F936F937F938F93B8
:100570009F93AF93BF93EF93FF9382E291E00E942A
:100580000A01FF91EF91BF91AF919F918F917F9160
:100590006F915F914F913F912F910F900FBE0F90F0
:1005A0001F9018951F920F920FB60F9211242F9340
:1005B0008F939F93EF93FF93E0913201F09133017A
:1005C0008081E0913801F091390182FD1BC090815A
:1005D00080913B018F5F8F7320913C01821741F026
:1005E000E0913B01F0E0EE5DFE4F958F80933B0183
:1005F000FF91EF919F918F912F910F900FBE0F90D0
:100600001F9018958081F4CF1F920F920FB60F9212
:1006100011242F933F938F939F93AF93BF93809118
:100620001B0190911C01A0911D01B0911E01309100
:10063000160123E0230F2D3758F50196A11DB11D9A
:100640002093160180931B0190931C01A0931D0120
:10065000B0931E018091170190911801A09119018A
:10066000B0911A010196A11DB11D809317019093BD
:100670001801A0931901B0931A01BF91AF919F91F6
:100680008F913F912F910F900FBE0F901F90189553
:1006900026E8230F0296A11DB11DD2CFCF92DF9283
:1006A000EF92FF920F931F93E82FF92F05C001508F
:1006B00011092109310961F1908196239417B9F349
:1006C00005C0015011092109310911F190819623CA
:1006D0009413F7CFC12CD12CE12CF12C0AC08FEF51
:1006E000C81AD80AE80AF80A0C151D052E053F0598
:1006F00079F080818623841791F36C2D7D2D8E2DCA
:100700009F2D1F910F91FF90EF90DF90CF90089554
:1007100060E070E080E090E01F910F91FF90EF901B
:10072000DF90CF900895789484B5826084BD84B5BD
:10073000816084BD85B5826085BD85B5816085BDDC
:1007400080916E00816080936E0010928100809194
:10075000810082608093810080918100816080931C
:100760008100809180008160809380008091B10041
:1007700084608093B1008091B00081608093B0006C
:1007800080917A00846080937A0080917A00826000
:1007900080937A0080917A00816080937A008091C2
:1007A0007A00806880937A001092C100E091320153
:1007B000F091330182E08083E0912E01F0912F01CE
:1007C0001082E0913001F09131018FEC8083109222
:1007D0003A01E0913601F091370186E08083E091A3
:1007E0003401F0913501808180618083E091340192
:1007F000F0913501808188608083E0913401F0912F
:100800003501808180688083E0913401F091350169
:1008100080818F7D808361E083E00E94E50160E05C
:1008200082E00E94E50161E08DE00E94E50160E068
:1008300083E00E9499018FE090E00197F1F761E079
:1008400083E00E94990183E290E00197F1F760E074
:1008500083E00E9499010E943B029FE0292E312CE7
:1008600003E210E028EE422E23E0522E612C712C80
:10087000C0E0D0E060E08DE00E94990160E083E09C
:100880000E949901C1010197F1F761E083E00E94A4
:100890009901C8010197F1F760E083E00E94990196
:1008A0000E943B020E94AA0523E337E241E556E499
:1008B0000E94610620E034E244EF59E40E943805CA
:1008C00020E030E040E451E40E9438056B017C01F7
:1008D00020E030E040E450E40E945C0618160CF082
:1008E00042C01092210120E030E040E450E4C70112
:1008F000B6010E94330518160CF444C080911F0104
:100900009091200101969093200180931F0161E056
:100910008DE00E9499010E9416024B015C0184E661
:10092000C82ED12CE12CF12C0E94160268197909ED
:100930008A099B09683E734081059105A8F321E06F
:10094000C21AD108E108F10888EE880E83E0981EEB
:10095000A11CB11CC114D104E104F10429F781E008
:10096000809321010FC020E030E040E450E4C70153
:10097000B6010E94330518162CF0809121018823BE
:1009800009F4BCCF2FB7F89460911B0170911C0142
:1009900080911D0190911E012FBFA30192010E9421
:1009A000CE06672B41F5C0901F01D09020010D2C81
:1009B000000CEE08FF084AE0C701B601F7FE0DC0C3
:1009C0006DE282E291E00E942C0166277727CB013D
:1009D0006C197D098E099F094AE00E945E0242E07F
:1009E00050E062E171E082E291E00E948C0010929E
:1009F000200110921F01209709F43CCF0E94F600BD
:100A0000882309F437CF0E94000034CFE2E2F1E0FE
:100A10001382128288EE93E0A0E0B0E08483958395
:100A2000A683B78384E091E09183808385EC90E096
:100A30009587848784EC90E09787868780EC90E0A8
:100A4000918B808B81EC90E0938B828B82EC90E099
:100A5000958B848B86EC90E0978B868B118E128E13
:100A6000138E148E08950E94E70508F481E008951E
:100A70000E944C050C9422060E941B0658F00E940E
:100A8000140640F029F45F3F29F00C940B06511135
:100A90000C9456060C9411060E94330668F39923B1
:100AA000B1F3552391F3951B550BBB27AA2762176A
:100AB0007307840738F09F5F5F4F220F331F441F77
:100AC000AA1FA9F335D00E2E3AF0E0E832D09150AB
:100AD0005040E695001CCAF72BD0FE2F29D0660F98
:100AE000771F881FBB1F261737074807AB07B0E8DB
:100AF00009F0BB0B802DBF01FF2793585F4F3AF0E1
:100B00009E3F510578F00C940B060C9456065F3FFF
:100B1000E4F3983ED4F3869577956795B795F79566
:100B20009F5FC9F7880F911D9695879597F908954E
:100B3000E1E0660F771F881FBB1F621773078407EA
:100B4000BA0720F0621B730B840BBA0BEE1F88F7F9
:100B5000E0950895E89409C097FB3EF49095809540
:100B6000709561957F4F8F4F9F4F9923A9F0F92F73
:100B700096E9BB279395F695879577956795B795F1
:100B8000F111F8CFFAF4BB0F11F460FF1BC06F5FD7
:100B90007F4F8F4F9F4F16C0882311F096E911C0E9
:100BA000772321F09EE8872F762F05C0662371F00A
:100BB00096E8862F70E060E02AF09A95660F771F1E
:100BC000881FDAF7880F9695879597F90895990FFA
:100BD0000008550FAA0BE0E8FEEF16161706E80707
:100BE000F907C0F012161306E407F50798F0621B28
:100BF000730B840B950B39F40A2661F0232B242BFD
:100C0000252B21F408950A2609F4A140A6958FEF1B
:100C1000811D811D089597F99F6780E870E060E06D
:100C200008959FEF80EC089500240A941616170685
:100C300018060906089500240A94121613061406CD
:100C400005060895092E0394000C11F4882352F030
:100C5000BB0F40F4BF2B11F460FF04C06F5F7F4FE8
:100C60008F4F9F4F089557FD9058440F551F59F0CF
:100C70005F3F71F04795880F97FB991F61F09F3F89
:100C800079F087950895121613061406551FF2CFB2
:100C90004695F1DF08C0161617061806991FF1CF02
:100CA00086957105610508940895E894BB27662729
:100CB0007727CB0197F908950E94E70508F48FEF95
:100CC00008950E9474060C9422060E94140638F0BF
:100CD0000E941B0620F0952311F00C940B060C9437
:100CE000110611240C9456060E94330670F3959F4A
:100CF000C1F3950F50E0551F629FF001729FBB2713
:100D0000F00DB11D639FAA27F00DB11DAA1F649FAE
:100D10006627B00DA11D661F829F2227B00DA11D61
:100D2000621F739FB00DA11D621F839FA00D611DE7
:100D3000221F749F3327A00D611D231F849F600D08
:100D4000211D822F762F6A2F11249F5750409AF031
:100D5000F1F088234AF0EE0FFF1FBB1F661F771FBD
:100D6000881F91505040A9F79E3F510580F00C9488
:100D70000B060C9456065F3FE4F3983ED4F3869539
:100D800077956795B795F795E7959F5FC1F7FE2B28
:100D9000880F911D9695879597F90895A1E21A2ECF
:100DA000AA1BBB1BFD010DC0AA1FBB1FEE1FFF1F0F
:100DB000A217B307E407F50720F0A21BB30BE40B5F
:100DC000F50B661F771F881F991F1A9469F76095A6
:100DD0007095809590959B01AC01BD01CF01089560
:100DE000EE0FFF1F0590F491E02D0994F894FFCFCA
:100DF000000000002C018C00B9007901EA00C80055
:060E0000DC000D0A0000F9
:00000001FF
